{
  "_format": "hh-sol-artifact-1",
  "contractName": "info",
  "sourceName": "contracts/ProjectTransaction.sol",
  "abi": [
    {
      "inputs": [],
      "stateMutability": "nonpayable",
      "type": "constructor"
    },
    {
      "inputs": [
        {
          "internalType": "string",
          "name": "name",
          "type": "string"
        },
        {
          "internalType": "string",
          "name": "message",
          "type": "string"
        }
      ],
      "name": "debit",
      "outputs": [],
      "stateMutability": "payable",
      "type": "function"
    },
    {
      "inputs": [],
      "name": "getMemos",
      "outputs": [
        {
          "components": [
            {
              "internalType": "string",
              "name": "name",
              "type": "string"
            },
            {
              "internalType": "string",
              "name": "message",
              "type": "string"
            },
            {
              "internalType": "uint256",
              "name": "timestamp",
              "type": "uint256"
            },
            {
              "internalType": "address",
              "name": "from",
              "type": "address"
            }
          ],
          "internalType": "struct info.Memo[]",
          "name": "",
          "type": "tuple[]"
        }
      ],
      "stateMutability": "view",
      "type": "function"
    }
  ],
  "bytecode": "0x608060405234801561001057600080fd5b5033600160006101000a81548173ffffffffffffffffffffffffffffffffffffffff021916908373ffffffffffffffffffffffffffffffffffffffff160217905550610a9b806100616000396000f3fe6080604052600436106100295760003560e01c8063865c51721461002e578063f8ab4f1214610059575b600080fd5b34801561003a57600080fd5b50610043610075565b6040516100509190610646565b60405180910390f35b610073600480360381019061006e91906106d7565b610258565b005b60606000805480602002602001604051908101604052809291908181526020016000905b8282101561024f57838290600052602060002090600402016040518060800160405290816000820180546100cc90610787565b80601f01602080910402602001604051908101604052809291908181526020018280546100f890610787565b80156101455780601f1061011a57610100808354040283529160200191610145565b820191906000526020600020905b81548152906001019060200180831161012857829003601f168201915b5050505050815260200160018201805461015e90610787565b80601f016020809104026020016040519081016040528092919081815260200182805461018a90610787565b80156101d75780601f106101ac576101008083540402835291602001916101d7565b820191906000526020600020905b8154815290600101906020018083116101ba57829003601f168201915b50505050508152602001600282015481526020016003820160009054906101000a900473ffffffffffffffffffffffffffffffffffffffff1673ffffffffffffffffffffffffffffffffffffffff1673ffffffffffffffffffffffffffffffffffffffff168152505081526020019060010190610099565b50505050905090565b600160009054906101000a900473ffffffffffffffffffffffffffffffffffffffff1673ffffffffffffffffffffffffffffffffffffffff166108fc349081150290604051600060405180830381858888f193505050501580156102c0573d6000803e3d6000fd5b506000604051806080016040528086868080601f016020809104026020016040519081016040528093929190818152602001838380828437600081840152601f19601f82011690508083019250505050505050815260200184848080601f016020809104026020016040519081016040528093929190818152602001838380828437600081840152601f19601f8201169050808301925050505050505081526020014281526020013373ffffffffffffffffffffffffffffffffffffffff16815250908060018154018082558091505060019003906000526020600020906004020160009091909190915060008201518160000190816103c09190610993565b5060208201518160010190816103d69190610993565b506040820151816002015560608201518160030160006101000a81548173ffffffffffffffffffffffffffffffffffffffff021916908373ffffffffffffffffffffffffffffffffffffffff160217905550505050505050565b600081519050919050565b600082825260208201905092915050565b6000819050602082019050919050565b600081519050919050565b600082825260208201905092915050565b60005b8381101561049657808201518184015260208101905061047b565b60008484015250505050565b6000601f19601f8301169050919050565b60006104be8261045c565b6104c88185610467565b93506104d8818560208601610478565b6104e1816104a2565b840191505092915050565b6000819050919050565b6104ff816104ec565b82525050565b600073ffffffffffffffffffffffffffffffffffffffff82169050919050565b600061053082610505565b9050919050565b61054081610525565b82525050565b6000608083016000830151848203600086015261056382826104b3565b9150506020830151848203602086015261057d82826104b3565b915050604083015161059260408601826104f6565b5060608301516105a56060860182610537565b508091505092915050565b60006105bc8383610546565b905092915050565b6000602082019050919050565b60006105dc82610430565b6105e6818561043b565b9350836020820285016105f88561044c565b8060005b85811015610634578484038952815161061585826105b0565b9450610620836105c4565b925060208a019950506001810190506105fc565b50829750879550505050505092915050565b6000602082019050818103600083015261066081846105d1565b905092915050565b600080fd5b600080fd5b600080fd5b600080fd5b600080fd5b60008083601f84011261069757610696610672565b5b8235905067ffffffffffffffff8111156106b4576106b3610677565b5b6020830191508360018202830111156106d0576106cf61067c565b5b9250929050565b600080600080604085870312156106f1576106f0610668565b5b600085013567ffffffffffffffff81111561070f5761070e61066d565b5b61071b87828801610681565b9450945050602085013567ffffffffffffffff81111561073e5761073d61066d565b5b61074a87828801610681565b925092505092959194509250565b7f4e487b7100000000000000000000000000000000000000000000000000000000600052602260045260246000fd5b6000600282049050600182168061079f57607f821691505b6020821081036107b2576107b1610758565b5b50919050565b7f4e487b7100000000000000000000000000000000000000000000000000000000600052604160045260246000fd5b60008190508160005260206000209050919050565b60006020601f8301049050919050565b600082821b905092915050565b6000600883026108497fffffffffffffffffffffffffffffffffffffffffffffffffffffffffffffffff8261080c565b610853868361080c565b95508019841693508086168417925050509392505050565b6000819050919050565b600061089061088b610886846104ec565b61086b565b6104ec565b9050919050565b6000819050919050565b6108aa83610875565b6108be6108b682610897565b848454610819565b825550505050565b600090565b6108d36108c6565b6108de8184846108a1565b505050565b5b81811015610902576108f76000826108cb565b6001810190506108e4565b5050565b601f82111561094757610918816107e7565b610921846107fc565b81016020851015610930578190505b61094461093c856107fc565b8301826108e3565b50505b505050565b600082821c905092915050565b600061096a6000198460080261094c565b1980831691505092915050565b60006109838383610959565b9150826002028217905092915050565b61099c8261045c565b67ffffffffffffffff8111156109b5576109b46107b8565b5b6109bf8254610787565b6109ca828285610906565b600060209050601f8311600181146109fd57600084156109eb578287015190505b6109f58582610977565b865550610a5d565b601f198416610a0b866107e7565b60005b82811015610a3357848901518255600182019150602085019450602081019050610a0e565b86831015610a505784890151610a4c601f891682610959565b8355505b6001600288020188555050505b50505050505056fea2646970667358221220647c6051441efa6852c4a9a9502c715437ed5910f600e52865913abd6a316f0c64736f6c63430008110033",
  "linkReferences": {},
  "deployedLinkReferences": {}
}